{
  "contractName": "Crud",
  "abi": [
    {
      "inputs": [
        {
          "internalType": "string",
          "name": "_name",
          "type": "string"
        }
      ],
      "name": "addUser",
      "outputs": [],
      "stateMutability": "nonpayable",
      "type": "function"
    },
    {
      "inputs": [
        {
          "internalType": "uint256",
          "name": "_id",
          "type": "uint256"
        }
      ],
      "name": "getDetails",
      "outputs": [
        {
          "internalType": "uint256",
          "name": "",
          "type": "uint256"
        },
        {
          "internalType": "string",
          "name": "",
          "type": "string"
        }
      ],
      "stateMutability": "view",
      "type": "function",
      "constant": true
    },
    {
      "inputs": [
        {
          "internalType": "uint256",
          "name": "_id",
          "type": "uint256"
        },
        {
          "internalType": "string",
          "name": "_name",
          "type": "string"
        }
      ],
      "name": "update",
      "outputs": [],
      "stateMutability": "nonpayable",
      "type": "function"
    },
    {
      "inputs": [
        {
          "internalType": "uint256",
          "name": "id",
          "type": "uint256"
        }
      ],
      "name": "Del",
      "outputs": [],
      "stateMutability": "nonpayable",
      "type": "function"
    }
  ],
  "bytecode": "0x608060405234801561001057600080fd5b506109bd806100206000396000f3fe608060405234801561001057600080fd5b506004361061004c5760003560e01c806318b8275a14610051578063659f84eb1461006d578063b93a89f714610089578063f745630f146100ba575b600080fd5b61006b60048036038101906100669190610646565b6100d6565b005b610087600480360381019061008291906106c5565b61015c565b005b6100a3600480360381019061009e91906106c5565b6101aa565b6040516100b1929190610789565b60405180910390f35b6100d460048036038101906100cf91906107b9565b61031f565b005b60006040518060400160405280600154815260200183815250908060018154018082558091505060019003906000526020600020906002020160009091909190915060008201518160000155602082015181600101908051906020019061013e929190610409565b5050506001600081548092919061015490610844565b919050555050565b60006101678261036b565b90506000818154811061017d5761017c61088c565b5b90600052602060002090600202016000808201600090556001820160006101a4919061048f565b50505050565b6000606060005b6000805490508110156102de5783600082815481106101d3576101d261088c565b5b906000526020600020906002020160000154036102cb57600081815481106101fe576101fd61088c565b5b906000526020600020906002020160000154600082815481106102245761022361088c565b5b9060005260206000209060020201600101808054610241906108ea565b80601f016020809104026020016040519081016040528092919081815260200182805461026d906108ea565b80156102ba5780601f1061028f576101008083540402835291602001916102ba565b820191906000526020600020905b81548152906001019060200180831161029d57829003601f168201915b50505050509050925092505061031a565b80806102d690610844565b9150506101b1565b506040517f08c379a000000000000000000000000000000000000000000000000000000000815260040161031190610967565b60405180910390fd5b915091565b600061032a8361036b565b905081600082815481106103415761034061088c565b5b90600052602060002090600202016001019080519060200190610365929190610409565b50505050565b600080600090505b6000805490508110156103c85782600082815481106103955761039461088c565b5b906000526020600020906002020160000154036103b55780915050610404565b80806103c090610844565b915050610373565b506040517f08c379a00000000000000000000000000000000000000000000000000000000081526004016103fb90610967565b60405180910390fd5b919050565b828054610415906108ea565b90600052602060002090601f016020900481019282610437576000855561047e565b82601f1061045057805160ff191683800117855561047e565b8280016001018555821561047e579182015b8281111561047d578251825591602001919060010190610462565b5b50905061048b91906104cf565b5090565b50805461049b906108ea565b6000825580601f106104ad57506104cc565b601f0160209004906000526020600020908101906104cb91906104cf565b5b50565b5b808211156104e85760008160009055506001016104d0565b5090565b6000604051905090565b600080fd5b600080fd5b600080fd5b600080fd5b6000601f19601f8301169050919050565b7f4e487b7100000000000000000000000000000000000000000000000000000000600052604160045260246000fd5b6105538261050a565b810181811067ffffffffffffffff821117156105725761057161051b565b5b80604052505050565b60006105856104ec565b9050610591828261054a565b919050565b600067ffffffffffffffff8211156105b1576105b061051b565b5b6105ba8261050a565b9050602081019050919050565b82818337600083830152505050565b60006105e96105e484610596565b61057b565b90508281526020810184848401111561060557610604610505565b5b6106108482856105c7565b509392505050565b600082601f83011261062d5761062c610500565b5b813561063d8482602086016105d6565b91505092915050565b60006020828403121561065c5761065b6104f6565b5b600082013567ffffffffffffffff81111561067a576106796104fb565b5b61068684828501610618565b91505092915050565b6000819050919050565b6106a28161068f565b81146106ad57600080fd5b50565b6000813590506106bf81610699565b92915050565b6000602082840312156106db576106da6104f6565b5b60006106e9848285016106b0565b91505092915050565b6106fb8161068f565b82525050565b600081519050919050565b600082825260208201905092915050565b60005b8381101561073b578082015181840152602081019050610720565b8381111561074a576000848401525b50505050565b600061075b82610701565b610765818561070c565b935061077581856020860161071d565b61077e8161050a565b840191505092915050565b600060408201905061079e60008301856106f2565b81810360208301526107b08184610750565b90509392505050565b600080604083850312156107d0576107cf6104f6565b5b60006107de858286016106b0565b925050602083013567ffffffffffffffff8111156107ff576107fe6104fb565b5b61080b85828601610618565b9150509250929050565b7f4e487b7100000000000000000000000000000000000000000000000000000000600052601160045260246000fd5b600061084f8261068f565b91507fffffffffffffffffffffffffffffffffffffffffffffffffffffffffffffffff820361088157610880610815565b5b600182019050919050565b7f4e487b7100000000000000000000000000000000000000000000000000000000600052603260045260246000fd5b7f4e487b7100000000000000000000000000000000000000000000000000000000600052602260045260246000fd5b6000600282049050600182168061090257607f821691505b602082108103610915576109146108bb565b5b50919050565b7f5573657220646f65736e27742065786973742100000000000000000000000000600082015250565b600061095160138361070c565b915061095c8261091b565b602082019050919050565b6000602082019050818103600083015261098081610944565b905091905056fea2646970667358221220eeeb29abf5a1e963121219bac7ffe2edb4a64a4e6e037f49e0456dc13e5f2a4664736f6c634300080d0033",
  "immutableReferences": {},
  "source": "// SPDX-License-Identifier: MIT\npragma solidity >=0.7.0 <0.9.0;\n\n\ncontract Crud {\n    struct Users {\n        uint id;\n        string name;\n    }\n\n    Users[] users;\n\n    // Add index of the users\n    uint nextId;\n\n    function addUser (string memory _name) public {\n        users.push(Users({id: nextId, name: _name}));\n        nextId++;\n    }\n\n    function getDetails (uint _id) public view returns(uint, string memory) {\n        for ( uint i = 0; i < users.length; i++) \n        {\n            if(users[i].id == _id) {\n                return (users[i].id, users[i].name);\n            }\n        }\n        revert(\"User doesn't exist!\");\n    }\n\n    function update (uint _id, string memory _name) public {\n        uint i = find(_id);\n        users[i].name = _name;\n\n    }\n\n    function Del (uint id) public {\n        uint i = find(id);\n        delete users[i];\n    }\n\n    function find (uint _id) view internal returns (uint) {\n        for (uint i = 0; i < users.length; i++) \n        {\n            if (users[i].id == _id) {\n                return i;\n            }\n        }\n        revert(\"User doesn't exist!\");\n    }\n}",
  "sourcePath": "/home/edwardfox/Coding/Web3 master/TA/Crud/My-crud-app/truffle/contracts/Crud.sol",
  "compiler": {
    "name": "solc",
    "version": "0.8.13+commit.abaa5c0e.Emscripten.clang"
  },
  "schemaVersion": "3.4.16",
  "updatedAt": "2024-12-01T09:30:58.754Z",
  "networkType": "ethereum",
  "devdoc": {
    "kind": "dev",
    "methods": {},
    "version": 1
  },
  "userdoc": {
    "kind": "user",
    "methods": {},
    "version": 1
  }
}